{
  "_format": "hh-sol-artifact-1",
  "contractName": "Voting",
  "sourceName": "contracts/Voting.sol",
  "abi": [
    {
      "anonymous": false,
      "inputs": [
        {
          "indexed": true,
          "internalType": "address",
          "name": "previousOwner",
          "type": "address"
        },
        {
          "indexed": true,
          "internalType": "address",
          "name": "newOwner",
          "type": "address"
        }
      ],
      "name": "OwnershipTransferred",
      "type": "event"
    },
    {
      "anonymous": false,
      "inputs": [
        {
          "indexed": false,
          "internalType": "uint256",
          "name": "proposalId",
          "type": "uint256"
        }
      ],
      "name": "ProposalRegistered",
      "type": "event"
    },
    {
      "anonymous": false,
      "inputs": [
        {
          "indexed": false,
          "internalType": "address",
          "name": "voter",
          "type": "address"
        },
        {
          "indexed": false,
          "internalType": "uint256",
          "name": "proposalId",
          "type": "uint256"
        }
      ],
      "name": "Voted",
      "type": "event"
    },
    {
      "anonymous": false,
      "inputs": [
        {
          "indexed": false,
          "internalType": "address",
          "name": "voterAddress",
          "type": "address"
        }
      ],
      "name": "VoterRegistered",
      "type": "event"
    },
    {
      "anonymous": false,
      "inputs": [
        {
          "indexed": false,
          "internalType": "enum Voting.WorkflowStatus",
          "name": "previousStatus",
          "type": "uint8"
        },
        {
          "indexed": false,
          "internalType": "enum Voting.WorkflowStatus",
          "name": "newStatus",
          "type": "uint8"
        }
      ],
      "name": "WorkflowStatusChange",
      "type": "event"
    },
    {
      "inputs": [
        {
          "internalType": "string",
          "name": "_desc",
          "type": "string"
        }
      ],
      "name": "addProposal",
      "outputs": [],
      "stateMutability": "nonpayable",
      "type": "function"
    },
    {
      "inputs": [
        {
          "internalType": "address",
          "name": "_addr",
          "type": "address"
        }
      ],
      "name": "addVoter",
      "outputs": [],
      "stateMutability": "nonpayable",
      "type": "function"
    },
    {
      "inputs": [],
      "name": "endProposalsRegistering",
      "outputs": [],
      "stateMutability": "nonpayable",
      "type": "function"
    },
    {
      "inputs": [],
      "name": "endVotingSession",
      "outputs": [],
      "stateMutability": "nonpayable",
      "type": "function"
    },
    {
      "inputs": [
        {
          "internalType": "uint256",
          "name": "_id",
          "type": "uint256"
        }
      ],
      "name": "getOneProposal",
      "outputs": [
        {
          "components": [
            {
              "internalType": "string",
              "name": "description",
              "type": "string"
            },
            {
              "internalType": "uint256",
              "name": "voteCount",
              "type": "uint256"
            }
          ],
          "internalType": "struct Voting.Proposal",
          "name": "",
          "type": "tuple"
        }
      ],
      "stateMutability": "view",
      "type": "function"
    },
    {
      "inputs": [
        {
          "internalType": "address",
          "name": "_addr",
          "type": "address"
        }
      ],
      "name": "getVoter",
      "outputs": [
        {
          "components": [
            {
              "internalType": "bool",
              "name": "isRegistered",
              "type": "bool"
            },
            {
              "internalType": "bool",
              "name": "hasVoted",
              "type": "bool"
            },
            {
              "internalType": "uint256",
              "name": "votedProposalId",
              "type": "uint256"
            }
          ],
          "internalType": "struct Voting.Voter",
          "name": "",
          "type": "tuple"
        }
      ],
      "stateMutability": "view",
      "type": "function"
    },
    {
      "inputs": [],
      "name": "getWinningProposal",
      "outputs": [
        {
          "components": [
            {
              "internalType": "string",
              "name": "description",
              "type": "string"
            },
            {
              "internalType": "uint256",
              "name": "voteCount",
              "type": "uint256"
            }
          ],
          "internalType": "struct Voting.Proposal",
          "name": "",
          "type": "tuple"
        }
      ],
      "stateMutability": "view",
      "type": "function"
    },
    {
      "inputs": [],
      "name": "owner",
      "outputs": [
        {
          "internalType": "address",
          "name": "",
          "type": "address"
        }
      ],
      "stateMutability": "view",
      "type": "function"
    },
    {
      "inputs": [],
      "name": "renounceOwnership",
      "outputs": [],
      "stateMutability": "nonpayable",
      "type": "function"
    },
    {
      "inputs": [
        {
          "internalType": "uint256",
          "name": "_id",
          "type": "uint256"
        }
      ],
      "name": "setVote",
      "outputs": [],
      "stateMutability": "nonpayable",
      "type": "function"
    },
    {
      "inputs": [],
      "name": "startProposalsRegistering",
      "outputs": [],
      "stateMutability": "nonpayable",
      "type": "function"
    },
    {
      "inputs": [],
      "name": "startVotingSession",
      "outputs": [],
      "stateMutability": "nonpayable",
      "type": "function"
    },
    {
      "inputs": [],
      "name": "tallyVotes",
      "outputs": [],
      "stateMutability": "nonpayable",
      "type": "function"
    },
    {
      "inputs": [
        {
          "internalType": "address",
          "name": "newOwner",
          "type": "address"
        }
      ],
      "name": "transferOwnership",
      "outputs": [],
      "stateMutability": "nonpayable",
      "type": "function"
    },
    {
      "inputs": [],
      "name": "workflowStatus",
      "outputs": [
        {
          "internalType": "enum Voting.WorkflowStatus",
          "name": "",
          "type": "uint8"
        }
      ],
      "stateMutability": "view",
      "type": "function"
    }
  ],
  "bytecode": "0x608060405234801561001057600080fd5b5061002d61002261003260201b60201c565b61003a60201b60201c565b6100fe565b600033905090565b60008060009054906101000a900473ffffffffffffffffffffffffffffffffffffffff169050816000806101000a81548173ffffffffffffffffffffffffffffffffffffffff021916908373ffffffffffffffffffffffffffffffffffffffff1602179055508173ffffffffffffffffffffffffffffffffffffffff168173ffffffffffffffffffffffffffffffffffffffff167f8be0079c531659141344cd1fd0a4f28419497f9722a3daafe3b4186f6b6457e060405160405180910390a35050565b6123e0806200010e6000396000f3fe608060405234801561001057600080fd5b50600436106100f55760003560e01c8063a513462011610097578063d4f50f9811610066578063d4f50f98146101ee578063ee74c6781461021e578063f2fde38b14610228578063f4ab9adf14610244576100f5565b8063a5134620146101b2578063a7bfab16146101d0578063c7038a4e146101da578063c88af42f146101e4576100f5565b8063715018a6116100d3578063715018a61461013c5780638da5cb5b14610146578063a1edffa214610164578063a2788cce14610182576100f5565b8063230796ae146100fa5780632fdae3c514610116578063378a217814610132575b600080fd5b610114600480360381019061010f9190611680565b610260565b005b610130600480360381019061012b9190611712565b6105b7565b005b61013a610841565b005b610144610927565b005b61014e61093b565b60405161015b91906117a0565b60405180910390f35b61016c610964565b6040516101799190611832565b60405180910390f35b61019c60048036038101906101979190611680565b610977565b6040516101a99190611932565b60405180910390f35b6101ba610ade565b6040516101c79190611932565b60405180910390f35b6101d8610c45565b005b6101e2610d2b565b005b6101ec610ef5565b005b61020860048036038101906102039190611980565b610fda565b6040516102159190611a0a565b60405180910390f35b610226611102565b005b610242600480360381019061023d9190611980565b6111e8565b005b61025e60048036038101906102599190611980565b61126b565b005b600460003373ffffffffffffffffffffffffffffffffffffffff1673ffffffffffffffffffffffffffffffffffffffff16815260200190815260200160002060000160009054906101000a900460ff166102ef576040517f08c379a00000000000000000000000000000000000000000000000000000000081526004016102e690611a82565b60405180910390fd5b60036005811115610303576103026117bb565b5b600260009054906101000a900460ff166005811115610325576103246117bb565b5b14610365576040517f08c379a000000000000000000000000000000000000000000000000000000000815260040161035c90611b14565b60405180910390fd5b60011515600460003373ffffffffffffffffffffffffffffffffffffffff1673ffffffffffffffffffffffffffffffffffffffff16815260200190815260200160002060000160019054906101000a900460ff161515036103fb576040517f08c379a00000000000000000000000000000000000000000000000000000000081526004016103f290611b80565b60405180910390fd5b6003805490508110610442576040517f08c379a000000000000000000000000000000000000000000000000000000000815260040161043990611bec565b60405180910390fd5b80600460003373ffffffffffffffffffffffffffffffffffffffff1673ffffffffffffffffffffffffffffffffffffffff168152602001908152602001600020600101819055506001600460003373ffffffffffffffffffffffffffffffffffffffff1673ffffffffffffffffffffffffffffffffffffffff16815260200190815260200160002060000160016101000a81548160ff021916908315150217905550600381815481106104f8576104f7611c0c565b5b9060005260206000209060020201600101600081548092919061051a90611c6a565b919050555060036001548154811061053557610534611c0c565b5b9060005260206000209060020201600101546003828154811061055b5761055a611c0c565b5b906000526020600020906002020160010154111561057b57806001819055505b7f4d99b957a2bc29a30ebd96a7be8e68fe50a3c701db28a91436490b7d53870ca433826040516105ac929190611cc1565b60405180910390a150565b600460003373ffffffffffffffffffffffffffffffffffffffff1673ffffffffffffffffffffffffffffffffffffffff16815260200190815260200160002060000160009054906101000a900460ff16610646576040517f08c379a000000000000000000000000000000000000000000000000000000000815260040161063d90611a82565b60405180910390fd5b6001600581111561065a576106596117bb565b5b600260009054906101000a900460ff16600581111561067c5761067b6117bb565b5b146106bc576040517f08c379a00000000000000000000000000000000000000000000000000000000081526004016106b390611d36565b60405180910390fd5b6040516020016106cb90611d7c565b6040516020818303038152906040528051906020012082826040516020016106f4929190611dd8565b604051602081830303815290604052805190602001200361074a576040517f08c379a000000000000000000000000000000000000000000000000000000000815260040161074190611e6e565b60405180910390fd5b61075261155e565b82828080601f016020809104026020016040519081016040528093929190818152602001838380828437600081840152601f19601f820116905080830192505050505050508160000181905250600381908060018154018082558091505060019003906000526020600020906002020160009091909190915060008201518160000190805190602001906107e7929190611578565b506020820151816001015550507f92e393e9b54e2f801d3ea4beb0c5e71a21cc34a5d34b77d0fb8a3aa1650dc18f60016003805490506108279190611e8e565b6040516108349190611ec2565b60405180910390a1505050565b610849611414565b6004600581111561085d5761085c6117bb565b5b600260009054906101000a900460ff16600581111561087f5761087e6117bb565b5b146108bf576040517f08c379a00000000000000000000000000000000000000000000000000000000081526004016108b690611f4f565b60405180910390fd5b6005600260006101000a81548160ff021916908360058111156108e5576108e46117bb565b5b02179055507f0a97a4ee45751e2abf3e4fc8946939630b11b371ea8ae39ccdc3056e98f5cc3f6004600560405161091d929190611f6f565b60405180910390a1565b61092f611414565b6109396000611492565b565b60008060009054906101000a900473ffffffffffffffffffffffffffffffffffffffff16905090565b600260009054906101000a900460ff1681565b61097f61155e565b600460003373ffffffffffffffffffffffffffffffffffffffff1673ffffffffffffffffffffffffffffffffffffffff16815260200190815260200160002060000160009054906101000a900460ff16610a0e576040517f08c379a0000000000000000000000000000000000000000000000000000000008152600401610a0590611a82565b60405180910390fd5b60038281548110610a2257610a21611c0c565b5b9060005260206000209060020201604051806040016040529081600082018054610a4b90611fc7565b80601f0160208091040260200160405190810160405280929190818152602001828054610a7790611fc7565b8015610ac45780601f10610a9957610100808354040283529160200191610ac4565b820191906000526020600020905b815481529060010190602001808311610aa757829003601f168201915b505050505081526020016001820154815250509050919050565b610ae661155e565b600460003373ffffffffffffffffffffffffffffffffffffffff1673ffffffffffffffffffffffffffffffffffffffff16815260200190815260200160002060000160009054906101000a900460ff16610b75576040517f08c379a0000000000000000000000000000000000000000000000000000000008152600401610b6c90611a82565b60405180910390fd5b600360015481548110610b8b57610b8a611c0c565b5b9060005260206000209060020201604051806040016040529081600082018054610bb490611fc7565b80601f0160208091040260200160405190810160405280929190818152602001828054610be090611fc7565b8015610c2d5780601f10610c0257610100808354040283529160200191610c2d565b820191906000526020600020905b815481529060010190602001808311610c1057829003601f168201915b50505050508152602001600182015481525050905090565b610c4d611414565b60036005811115610c6157610c606117bb565b5b600260009054906101000a900460ff166005811115610c8357610c826117bb565b5b14610cc3576040517f08c379a0000000000000000000000000000000000000000000000000000000008152600401610cba90611b14565b60405180910390fd5b6004600260006101000a81548160ff02191690836005811115610ce957610ce86117bb565b5b02179055507f0a97a4ee45751e2abf3e4fc8946939630b11b371ea8ae39ccdc3056e98f5cc3f60036004604051610d21929190611f6f565b60405180910390a1565b610d33611414565b60006005811115610d4757610d466117bb565b5b600260009054906101000a900460ff166005811115610d6957610d686117bb565b5b14610da9576040517f08c379a0000000000000000000000000000000000000000000000000000000008152600401610da09061206a565b60405180910390fd5b6001600260006101000a81548160ff02191690836005811115610dcf57610dce6117bb565b5b0217905550610ddc61155e565b6040518060400160405280600781526020017f47454e4553495300000000000000000000000000000000000000000000000000815250816000018190525060038190806001815401808255809150506001900390600052602060002090600202016000909190919091506000820151816000019080519060200190610e62929190611578565b506020820151816001015550507f92e393e9b54e2f801d3ea4beb0c5e71a21cc34a5d34b77d0fb8a3aa1650dc18f6001600380549050610ea29190611e8e565b604051610eaf9190611ec2565b60405180910390a17f0a97a4ee45751e2abf3e4fc8946939630b11b371ea8ae39ccdc3056e98f5cc3f60006001604051610eea929190611f6f565b60405180910390a150565b610efd611414565b60016005811115610f1157610f106117bb565b5b600260009054906101000a900460ff166005811115610f3357610f326117bb565b5b14610f73576040517f08c379a0000000000000000000000000000000000000000000000000000000008152600401610f6a906120fc565b60405180910390fd5b60028060006101000a81548160ff02191690836005811115610f9857610f976117bb565b5b02179055507f0a97a4ee45751e2abf3e4fc8946939630b11b371ea8ae39ccdc3056e98f5cc3f60016002604051610fd0929190611f6f565b60405180910390a1565b610fe26115fe565b600460003373ffffffffffffffffffffffffffffffffffffffff1673ffffffffffffffffffffffffffffffffffffffff16815260200190815260200160002060000160009054906101000a900460ff16611071576040517f08c379a000000000000000000000000000000000000000000000000000000000815260040161106890611a82565b60405180910390fd5b600460008373ffffffffffffffffffffffffffffffffffffffff1673ffffffffffffffffffffffffffffffffffffffff1681526020019081526020016000206040518060600160405290816000820160009054906101000a900460ff161515151581526020016000820160019054906101000a900460ff161515151581526020016001820154815250509050919050565b61110a611414565b6002600581111561111e5761111d6117bb565b5b600260009054906101000a900460ff1660058111156111405761113f6117bb565b5b14611180576040517f08c379a00000000000000000000000000000000000000000000000000000000081526004016111779061218e565b60405180910390fd5b6003600260006101000a81548160ff021916908360058111156111a6576111a56117bb565b5b02179055507f0a97a4ee45751e2abf3e4fc8946939630b11b371ea8ae39ccdc3056e98f5cc3f600260036040516111de929190611f6f565b60405180910390a1565b6111f0611414565b600073ffffffffffffffffffffffffffffffffffffffff168173ffffffffffffffffffffffffffffffffffffffff160361125f576040517f08c379a000000000000000000000000000000000000000000000000000000000815260040161125690612220565b60405180910390fd5b61126881611492565b50565b611273611414565b60006005811115611287576112866117bb565b5b600260009054906101000a900460ff1660058111156112a9576112a86117bb565b5b146112e9576040517f08c379a00000000000000000000000000000000000000000000000000000000081526004016112e0906122b2565b60405180910390fd5b60011515600460008373ffffffffffffffffffffffffffffffffffffffff1673ffffffffffffffffffffffffffffffffffffffff16815260200190815260200160002060000160009054906101000a900460ff1615150361137f576040517f08c379a00000000000000000000000000000000000000000000000000000000081526004016113769061231e565b60405180910390fd5b6001600460008373ffffffffffffffffffffffffffffffffffffffff1673ffffffffffffffffffffffffffffffffffffffff16815260200190815260200160002060000160006101000a81548160ff0219169083151502179055507fb6be2187d059cc2a55fe29e0e503b566e1e0f8c8780096e185429350acffd3dd8160405161140991906117a0565b60405180910390a150565b61141c611556565b73ffffffffffffffffffffffffffffffffffffffff1661143a61093b565b73ffffffffffffffffffffffffffffffffffffffff1614611490576040517f08c379a00000000000000000000000000000000000000000000000000000000081526004016114879061238a565b60405180910390fd5b565b60008060009054906101000a900473ffffffffffffffffffffffffffffffffffffffff169050816000806101000a81548173ffffffffffffffffffffffffffffffffffffffff021916908373ffffffffffffffffffffffffffffffffffffffff1602179055508173ffffffffffffffffffffffffffffffffffffffff168173ffffffffffffffffffffffffffffffffffffffff167f8be0079c531659141344cd1fd0a4f28419497f9722a3daafe3b4186f6b6457e060405160405180910390a35050565b600033905090565b604051806040016040528060608152602001600081525090565b82805461158490611fc7565b90600052602060002090601f0160209004810192826115a657600085556115ed565b82601f106115bf57805160ff19168380011785556115ed565b828001600101855582156115ed579182015b828111156115ec5782518255916020019190600101906115d1565b5b5090506115fa9190611623565b5090565b6040518060600160405280600015158152602001600015158152602001600081525090565b5b8082111561163c576000816000905550600101611624565b5090565b600080fd5b600080fd5b6000819050919050565b61165d8161164a565b811461166857600080fd5b50565b60008135905061167a81611654565b92915050565b60006020828403121561169657611695611640565b5b60006116a48482850161166b565b91505092915050565b600080fd5b600080fd5b600080fd5b60008083601f8401126116d2576116d16116ad565b5b8235905067ffffffffffffffff8111156116ef576116ee6116b2565b5b60208301915083600182028301111561170b5761170a6116b7565b5b9250929050565b6000806020838503121561172957611728611640565b5b600083013567ffffffffffffffff81111561174757611746611645565b5b611753858286016116bc565b92509250509250929050565b600073ffffffffffffffffffffffffffffffffffffffff82169050919050565b600061178a8261175f565b9050919050565b61179a8161177f565b82525050565b60006020820190506117b56000830184611791565b92915050565b7f4e487b7100000000000000000000000000000000000000000000000000000000600052602160045260246000fd5b600681106117fb576117fa6117bb565b5b50565b600081905061180c826117ea565b919050565b600061181c826117fe565b9050919050565b61182c81611811565b82525050565b60006020820190506118476000830184611823565b92915050565b600081519050919050565b600082825260208201905092915050565b60005b8381101561188757808201518184015260208101905061186c565b83811115611896576000848401525b50505050565b6000601f19601f8301169050919050565b60006118b88261184d565b6118c28185611858565b93506118d2818560208601611869565b6118db8161189c565b840191505092915050565b6118ef8161164a565b82525050565b6000604083016000830151848203600086015261191282826118ad565b915050602083015161192760208601826118e6565b508091505092915050565b6000602082019050818103600083015261194c81846118f5565b905092915050565b61195d8161177f565b811461196857600080fd5b50565b60008135905061197a81611954565b92915050565b60006020828403121561199657611995611640565b5b60006119a48482850161196b565b91505092915050565b60008115159050919050565b6119c2816119ad565b82525050565b6060820160008201516119de60008501826119b9565b5060208201516119f160208501826119b9565b506040820151611a0460408501826118e6565b50505050565b6000606082019050611a1f60008301846119c8565b92915050565b600082825260208201905092915050565b7f596f75277265206e6f74206120766f7465720000000000000000000000000000600082015250565b6000611a6c601283611a25565b9150611a7782611a36565b602082019050919050565b60006020820190508181036000830152611a9b81611a5f565b9050919050565b7f566f74696e672073657373696f6e20686176656e74207374617274656420796560008201527f7400000000000000000000000000000000000000000000000000000000000000602082015250565b6000611afe602183611a25565b9150611b0982611aa2565b604082019050919050565b60006020820190508181036000830152611b2d81611af1565b9050919050565b7f596f75206861766520616c726561647920766f74656400000000000000000000600082015250565b6000611b6a601683611a25565b9150611b7582611b34565b602082019050919050565b60006020820190508181036000830152611b9981611b5d565b9050919050565b7f50726f706f73616c206e6f7420666f756e640000000000000000000000000000600082015250565b6000611bd6601283611a25565b9150611be182611ba0565b602082019050919050565b60006020820190508181036000830152611c0581611bc9565b9050919050565b7f4e487b7100000000000000000000000000000000000000000000000000000000600052603260045260246000fd5b7f4e487b7100000000000000000000000000000000000000000000000000000000600052601160045260246000fd5b6000611c758261164a565b91507fffffffffffffffffffffffffffffffffffffffffffffffffffffffffffffffff8203611ca757611ca6611c3b565b5b600182019050919050565b611cbb8161164a565b82525050565b6000604082019050611cd66000830185611791565b611ce36020830184611cb2565b9392505050565b7f50726f706f73616c7320617265206e6f7420616c6c6f77656420796574000000600082015250565b6000611d20601d83611a25565b9150611d2b82611cea565b602082019050919050565b60006020820190508181036000830152611d4f81611d13565b9050919050565b50565b6000611d66600083611a25565b9150611d7182611d56565b600082019050919050565b60006020820190508181036000830152611d9581611d59565b9050919050565b82818337600083830152505050565b6000611db78385611a25565b9350611dc4838584611d9c565b611dcd8361189c565b840190509392505050565b60006020820190508181036000830152611df3818486611dab565b90509392505050565b7f566f7573206e6520706f7576657a20706173206e65207269656e2070726f706f60008201527f7365720000000000000000000000000000000000000000000000000000000000602082015250565b6000611e58602383611a25565b9150611e6382611dfc565b604082019050919050565b60006020820190508181036000830152611e8781611e4b565b9050919050565b6000611e998261164a565b9150611ea48361164a565b925082821015611eb757611eb6611c3b565b5b828203905092915050565b6000602082019050611ed76000830184611cb2565b92915050565b7f43757272656e7420737461747573206973206e6f7420766f74696e672073657360008201527f73696f6e20656e64656400000000000000000000000000000000000000000000602082015250565b6000611f39602a83611a25565b9150611f4482611edd565b604082019050919050565b60006020820190508181036000830152611f6881611f2c565b9050919050565b6000604082019050611f846000830185611823565b611f916020830184611823565b9392505050565b7f4e487b7100000000000000000000000000000000000000000000000000000000600052602260045260246000fd5b60006002820490506001821680611fdf57607f821691505b602082108103611ff257611ff1611f98565b5b50919050565b7f5265676973746572696e672070726f706f73616c732063616e7420626520737460008201527f6172746564206e6f770000000000000000000000000000000000000000000000602082015250565b6000612054602983611a25565b915061205f82611ff8565b604082019050919050565b6000602082019050818103600083015261208381612047565b9050919050565b7f5265676973746572696e672070726f706f73616c7320686176656e742073746160008201527f7274656420796574000000000000000000000000000000000000000000000000602082015250565b60006120e6602883611a25565b91506120f18261208a565b604082019050919050565b60006020820190508181036000830152612115816120d9565b9050919050565b7f5265676973746572696e672070726f706f73616c73207068617365206973206e60008201527f6f742066696e6973686564000000000000000000000000000000000000000000602082015250565b6000612178602b83611a25565b91506121838261211c565b604082019050919050565b600060208201905081810360008301526121a78161216b565b9050919050565b7f4f776e61626c653a206e6577206f776e657220697320746865207a65726f206160008201527f6464726573730000000000000000000000000000000000000000000000000000602082015250565b600061220a602683611a25565b9150612215826121ae565b604082019050919050565b60006020820190508181036000830152612239816121fd565b9050919050565b7f566f7465727320726567697374726174696f6e206973206e6f74206f70656e2060008201527f7965740000000000000000000000000000000000000000000000000000000000602082015250565b600061229c602383611a25565b91506122a782612240565b604082019050919050565b600060208201905081810360008301526122cb8161228f565b9050919050565b7f416c726561647920726567697374657265640000000000000000000000000000600082015250565b6000612308601283611a25565b9150612313826122d2565b602082019050919050565b60006020820190508181036000830152612337816122fb565b9050919050565b7f4f776e61626c653a2063616c6c6572206973206e6f7420746865206f776e6572600082015250565b6000612374602083611a25565b915061237f8261233e565b602082019050919050565b600060208201905081810360008301526123a381612367565b905091905056fea26469706673582212203005cba1cfcdffdde6ae7c9afad985853edfb2b64eb4552d220934e623dcdc2264736f6c634300080d0033",
  "linkReferences": {},
  "deployedLinkReferences": {}
}