{
  "_format": "hh-sol-artifact-1",
  "contractName": "Voting",
  "sourceName": "contracts/Voting.sol",
  "abi": [
    {
      "anonymous": false,
      "inputs": [
        {
          "indexed": true,
          "internalType": "address",
          "name": "previousOwner",
          "type": "address"
        },
        {
          "indexed": true,
          "internalType": "address",
          "name": "newOwner",
          "type": "address"
        }
      ],
      "name": "OwnershipTransferred",
      "type": "event"
    },
    {
      "anonymous": false,
      "inputs": [
        {
          "indexed": false,
          "internalType": "uint256",
          "name": "proposalId",
          "type": "uint256"
        }
      ],
      "name": "ProposalRegistered",
      "type": "event"
    },
    {
      "anonymous": false,
      "inputs": [
        {
          "indexed": false,
          "internalType": "address",
          "name": "voter",
          "type": "address"
        },
        {
          "indexed": false,
          "internalType": "uint256",
          "name": "proposalId",
          "type": "uint256"
        }
      ],
      "name": "Voted",
      "type": "event"
    },
    {
      "anonymous": false,
      "inputs": [
        {
          "indexed": false,
          "internalType": "address",
          "name": "voterAddress",
          "type": "address"
        }
      ],
      "name": "VoterRegistered",
      "type": "event"
    },
    {
      "anonymous": false,
      "inputs": [
        {
          "indexed": false,
          "internalType": "enum Voting.WorkflowStatus",
          "name": "previousStatus",
          "type": "uint8"
        },
        {
          "indexed": false,
          "internalType": "enum Voting.WorkflowStatus",
          "name": "newStatus",
          "type": "uint8"
        }
      ],
      "name": "WorkflowStatusChange",
      "type": "event"
    },
    {
      "inputs": [
        {
          "internalType": "string",
          "name": "_desc",
          "type": "string"
        }
      ],
      "name": "addProposal",
      "outputs": [],
      "stateMutability": "nonpayable",
      "type": "function"
    },
    {
      "inputs": [
        {
          "internalType": "address",
          "name": "_addr",
          "type": "address"
        }
      ],
      "name": "addVoter",
      "outputs": [],
      "stateMutability": "nonpayable",
      "type": "function"
    },
    {
      "inputs": [],
      "name": "endProposalsRegistering",
      "outputs": [],
      "stateMutability": "nonpayable",
      "type": "function"
    },
    {
      "inputs": [],
      "name": "endVotingSession",
      "outputs": [],
      "stateMutability": "nonpayable",
      "type": "function"
    },
    {
      "inputs": [
        {
          "internalType": "uint256",
          "name": "_id",
          "type": "uint256"
        }
      ],
      "name": "getOneProposal",
      "outputs": [
        {
          "components": [
            {
              "internalType": "string",
              "name": "description",
              "type": "string"
            },
            {
              "internalType": "uint256",
              "name": "voteCount",
              "type": "uint256"
            }
          ],
          "internalType": "struct Voting.Proposal",
          "name": "",
          "type": "tuple"
        }
      ],
      "stateMutability": "view",
      "type": "function"
    },
    {
      "inputs": [
        {
          "internalType": "address",
          "name": "_addr",
          "type": "address"
        }
      ],
      "name": "getVoter",
      "outputs": [
        {
          "components": [
            {
              "internalType": "bool",
              "name": "isRegistered",
              "type": "bool"
            },
            {
              "internalType": "bool",
              "name": "hasVoted",
              "type": "bool"
            },
            {
              "internalType": "uint256",
              "name": "votedProposalId",
              "type": "uint256"
            }
          ],
          "internalType": "struct Voting.Voter",
          "name": "",
          "type": "tuple"
        }
      ],
      "stateMutability": "view",
      "type": "function"
    },
    {
      "inputs": [],
      "name": "getWinningProposal",
      "outputs": [
        {
          "components": [
            {
              "internalType": "string",
              "name": "description",
              "type": "string"
            },
            {
              "internalType": "uint256",
              "name": "voteCount",
              "type": "uint256"
            }
          ],
          "internalType": "struct Voting.Proposal",
          "name": "",
          "type": "tuple"
        }
      ],
      "stateMutability": "view",
      "type": "function"
    },
    {
      "inputs": [],
      "name": "owner",
      "outputs": [
        {
          "internalType": "address",
          "name": "",
          "type": "address"
        }
      ],
      "stateMutability": "view",
      "type": "function"
    },
    {
      "inputs": [],
      "name": "renounceOwnership",
      "outputs": [],
      "stateMutability": "nonpayable",
      "type": "function"
    },
    {
      "inputs": [
        {
          "internalType": "uint256",
          "name": "_id",
          "type": "uint256"
        }
      ],
      "name": "setVote",
      "outputs": [],
      "stateMutability": "nonpayable",
      "type": "function"
    },
    {
      "inputs": [],
      "name": "startProposalsRegistering",
      "outputs": [],
      "stateMutability": "nonpayable",
      "type": "function"
    },
    {
      "inputs": [],
      "name": "startVotingSession",
      "outputs": [],
      "stateMutability": "nonpayable",
      "type": "function"
    },
    {
      "inputs": [],
      "name": "tallyVotes",
      "outputs": [],
      "stateMutability": "nonpayable",
      "type": "function"
    },
    {
      "inputs": [
        {
          "internalType": "address",
          "name": "newOwner",
          "type": "address"
        }
      ],
      "name": "transferOwnership",
      "outputs": [],
      "stateMutability": "nonpayable",
      "type": "function"
    },
    {
      "inputs": [],
      "name": "workflowStatus",
      "outputs": [
        {
          "internalType": "enum Voting.WorkflowStatus",
          "name": "",
          "type": "uint8"
        }
      ],
      "stateMutability": "view",
      "type": "function"
    }
  ],
  "bytecode": "0x60806040523480156200001157600080fd5b5062000032620000266200003860201b60201c565b6200004060201b60201c565b62000104565b600033905090565b60008060009054906101000a900473ffffffffffffffffffffffffffffffffffffffff169050816000806101000a81548173ffffffffffffffffffffffffffffffffffffffff021916908373ffffffffffffffffffffffffffffffffffffffff1602179055508173ffffffffffffffffffffffffffffffffffffffff168173ffffffffffffffffffffffffffffffffffffffff167f8be0079c531659141344cd1fd0a4f28419497f9722a3daafe3b4186f6b6457e060405160405180910390a35050565b6125b680620001146000396000f3fe608060405234801561001057600080fd5b50600436106100f55760003560e01c8063a513462011610097578063d4f50f9811610066578063d4f50f98146101ee578063ee74c6781461021e578063f2fde38b14610228578063f4ab9adf14610244576100f5565b8063a5134620146101b2578063a7bfab16146101d0578063c7038a4e146101da578063c88af42f146101e4576100f5565b8063715018a6116100d3578063715018a61461013c5780638da5cb5b14610146578063a1edffa214610164578063a2788cce14610182576100f5565b8063230796ae146100fa5780632fdae3c514610116578063378a217814610132575b600080fd5b610114600480360381019061010f91906115b2565b610260565b005b610130600480360381019061012b9190611644565b61055b565b005b61013a6107de565b005b61014461094b565b005b61014e61095f565b60405161015b91906116d2565b60405180910390f35b61016c610988565b6040516101799190611764565b60405180910390f35b61019c600480360381019061019791906115b2565b61099b565b6040516101a9919061185b565b60405180910390f35b6101ba610b02565b6040516101c7919061185b565b60405180910390f35b6101d8610c69565b005b6101e2610d4f565b005b6101ec610eca565b005b610208600480360381019061020391906118a9565b610faf565b6040516102159190611933565b60405180910390f35b6102266110d7565b005b610242600480360381019061023d91906118a9565b6111bd565b005b61025e600480360381019061025991906118a9565b611240565b005b600460003373ffffffffffffffffffffffffffffffffffffffff1673ffffffffffffffffffffffffffffffffffffffff16815260200190815260200160002060000160009054906101000a900460ff166102ef576040517f08c379a00000000000000000000000000000000000000000000000000000000081526004016102e6906119ab565b60405180910390fd5b60036005811115610303576103026116ed565b5b600260009054906101000a900460ff166005811115610325576103246116ed565b5b14610365576040517f08c379a000000000000000000000000000000000000000000000000000000000815260040161035c90611a3d565b60405180910390fd5b60011515600460003373ffffffffffffffffffffffffffffffffffffffff1673ffffffffffffffffffffffffffffffffffffffff16815260200190815260200160002060000160019054906101000a900460ff161515036103fb576040517f08c379a00000000000000000000000000000000000000000000000000000000081526004016103f290611aa9565b60405180910390fd5b6003805490508110610442576040517f08c379a000000000000000000000000000000000000000000000000000000000815260040161043990611b15565b60405180910390fd5b80600460003373ffffffffffffffffffffffffffffffffffffffff1673ffffffffffffffffffffffffffffffffffffffff168152602001908152602001600020600101819055506001600460003373ffffffffffffffffffffffffffffffffffffffff1673ffffffffffffffffffffffffffffffffffffffff16815260200190815260200160002060000160016101000a81548160ff021916908315150217905550600381815481106104f8576104f7611b35565b5b9060005260206000209060020201600101600081548092919061051a90611b93565b91905055507f4d99b957a2bc29a30ebd96a7be8e68fe50a3c701db28a91436490b7d53870ca43382604051610550929190611bea565b60405180910390a150565b600460003373ffffffffffffffffffffffffffffffffffffffff1673ffffffffffffffffffffffffffffffffffffffff16815260200190815260200160002060000160009054906101000a900460ff166105ea576040517f08c379a00000000000000000000000000000000000000000000000000000000081526004016105e1906119ab565b60405180910390fd5b600160058111156105fe576105fd6116ed565b5b600260009054906101000a900460ff1660058111156106205761061f6116ed565b5b14610660576040517f08c379a000000000000000000000000000000000000000000000000000000000815260040161065790611c5f565b60405180910390fd5b60405160200161066f90611ca5565b604051602081830303815290604052805190602001208282604051602001610698929190611d01565b60405160208183030381529060405280519060200120036106ee576040517f08c379a00000000000000000000000000000000000000000000000000000000081526004016106e590611d97565b60405180910390fd5b6106f6611533565b82828080601f016020809104026020016040519081016040528093929190818152602001838380828437600081840152601f19601f820116905080830192505050505050508160000181905250600381908060018154018082558091505060019003906000526020600020906002020160009091909190915060008201518160000190816107849190611ff2565b506020820151816001015550507f92e393e9b54e2f801d3ea4beb0c5e71a21cc34a5d34b77d0fb8a3aa1650dc18f60016003805490506107c491906120c4565b6040516107d191906120f8565b60405180910390a1505050565b6107e66113e9565b600460058111156107fa576107f96116ed565b5b600260009054906101000a900460ff16600581111561081c5761081b6116ed565b5b1461085c576040517f08c379a000000000000000000000000000000000000000000000000000000000815260040161085390612185565b60405180910390fd5b600080600090505b6003805490508110156108da576003828154811061088557610884611b35565b5b906000526020600020906002020160010154600382815481106108ab576108aa611b35565b5b90600052602060002090600202016001015411156108c7578091505b80806108d290611b93565b915050610864565b50806001819055506005600260006101000a81548160ff02191690836005811115610908576109076116ed565b5b02179055507f0a97a4ee45751e2abf3e4fc8946939630b11b371ea8ae39ccdc3056e98f5cc3f600460056040516109409291906121a5565b60405180910390a150565b6109536113e9565b61095d6000611467565b565b60008060009054906101000a900473ffffffffffffffffffffffffffffffffffffffff16905090565b600260009054906101000a900460ff1681565b6109a3611533565b600460003373ffffffffffffffffffffffffffffffffffffffff1673ffffffffffffffffffffffffffffffffffffffff16815260200190815260200160002060000160009054906101000a900460ff16610a32576040517f08c379a0000000000000000000000000000000000000000000000000000000008152600401610a29906119ab565b60405180910390fd5b60038281548110610a4657610a45611b35565b5b9060005260206000209060020201604051806040016040529081600082018054610a6f90611e15565b80601f0160208091040260200160405190810160405280929190818152602001828054610a9b90611e15565b8015610ae85780601f10610abd57610100808354040283529160200191610ae8565b820191906000526020600020905b815481529060010190602001808311610acb57829003601f168201915b505050505081526020016001820154815250509050919050565b610b0a611533565b600460003373ffffffffffffffffffffffffffffffffffffffff1673ffffffffffffffffffffffffffffffffffffffff16815260200190815260200160002060000160009054906101000a900460ff16610b99576040517f08c379a0000000000000000000000000000000000000000000000000000000008152600401610b90906119ab565b60405180910390fd5b600360015481548110610baf57610bae611b35565b5b9060005260206000209060020201604051806040016040529081600082018054610bd890611e15565b80601f0160208091040260200160405190810160405280929190818152602001828054610c0490611e15565b8015610c515780601f10610c2657610100808354040283529160200191610c51565b820191906000526020600020905b815481529060010190602001808311610c3457829003601f168201915b50505050508152602001600182015481525050905090565b610c716113e9565b60036005811115610c8557610c846116ed565b5b600260009054906101000a900460ff166005811115610ca757610ca66116ed565b5b14610ce7576040517f08c379a0000000000000000000000000000000000000000000000000000000008152600401610cde90611a3d565b60405180910390fd5b6004600260006101000a81548160ff02191690836005811115610d0d57610d0c6116ed565b5b02179055507f0a97a4ee45751e2abf3e4fc8946939630b11b371ea8ae39ccdc3056e98f5cc3f60036004604051610d459291906121a5565b60405180910390a1565b610d576113e9565b60006005811115610d6b57610d6a6116ed565b5b600260009054906101000a900460ff166005811115610d8d57610d8c6116ed565b5b14610dcd576040517f08c379a0000000000000000000000000000000000000000000000000000000008152600401610dc490612240565b60405180910390fd5b6001600260006101000a81548160ff02191690836005811115610df357610df26116ed565b5b0217905550610e00611533565b6040518060400160405280600781526020017f47454e4553495300000000000000000000000000000000000000000000000000815250816000018190525060038190806001815401808255809150506001900390600052602060002090600202016000909190919091506000820151816000019081610e7f9190611ff2565b506020820151816001015550507f0a97a4ee45751e2abf3e4fc8946939630b11b371ea8ae39ccdc3056e98f5cc3f60006001604051610ebf9291906121a5565b60405180910390a150565b610ed26113e9565b60016005811115610ee657610ee56116ed565b5b600260009054906101000a900460ff166005811115610f0857610f076116ed565b5b14610f48576040517f08c379a0000000000000000000000000000000000000000000000000000000008152600401610f3f906122d2565b60405180910390fd5b60028060006101000a81548160ff02191690836005811115610f6d57610f6c6116ed565b5b02179055507f0a97a4ee45751e2abf3e4fc8946939630b11b371ea8ae39ccdc3056e98f5cc3f60016002604051610fa59291906121a5565b60405180910390a1565b610fb761154d565b600460003373ffffffffffffffffffffffffffffffffffffffff1673ffffffffffffffffffffffffffffffffffffffff16815260200190815260200160002060000160009054906101000a900460ff16611046576040517f08c379a000000000000000000000000000000000000000000000000000000000815260040161103d906119ab565b60405180910390fd5b600460008373ffffffffffffffffffffffffffffffffffffffff1673ffffffffffffffffffffffffffffffffffffffff1681526020019081526020016000206040518060600160405290816000820160009054906101000a900460ff161515151581526020016000820160019054906101000a900460ff161515151581526020016001820154815250509050919050565b6110df6113e9565b600260058111156110f3576110f26116ed565b5b600260009054906101000a900460ff166005811115611115576111146116ed565b5b14611155576040517f08c379a000000000000000000000000000000000000000000000000000000000815260040161114c90612364565b60405180910390fd5b6003600260006101000a81548160ff0219169083600581111561117b5761117a6116ed565b5b02179055507f0a97a4ee45751e2abf3e4fc8946939630b11b371ea8ae39ccdc3056e98f5cc3f600260036040516111b39291906121a5565b60405180910390a1565b6111c56113e9565b600073ffffffffffffffffffffffffffffffffffffffff168173ffffffffffffffffffffffffffffffffffffffff1603611234576040517f08c379a000000000000000000000000000000000000000000000000000000000815260040161122b906123f6565b60405180910390fd5b61123d81611467565b50565b6112486113e9565b6000600581111561125c5761125b6116ed565b5b600260009054906101000a900460ff16600581111561127e5761127d6116ed565b5b146112be576040517f08c379a00000000000000000000000000000000000000000000000000000000081526004016112b590612488565b60405180910390fd5b60011515600460008373ffffffffffffffffffffffffffffffffffffffff1673ffffffffffffffffffffffffffffffffffffffff16815260200190815260200160002060000160009054906101000a900460ff16151503611354576040517f08c379a000000000000000000000000000000000000000000000000000000000815260040161134b906124f4565b60405180910390fd5b6001600460008373ffffffffffffffffffffffffffffffffffffffff1673ffffffffffffffffffffffffffffffffffffffff16815260200190815260200160002060000160006101000a81548160ff0219169083151502179055507fb6be2187d059cc2a55fe29e0e503b566e1e0f8c8780096e185429350acffd3dd816040516113de91906116d2565b60405180910390a150565b6113f161152b565b73ffffffffffffffffffffffffffffffffffffffff1661140f61095f565b73ffffffffffffffffffffffffffffffffffffffff1614611465576040517f08c379a000000000000000000000000000000000000000000000000000000000815260040161145c90612560565b60405180910390fd5b565b60008060009054906101000a900473ffffffffffffffffffffffffffffffffffffffff169050816000806101000a81548173ffffffffffffffffffffffffffffffffffffffff021916908373ffffffffffffffffffffffffffffffffffffffff1602179055508173ffffffffffffffffffffffffffffffffffffffff168173ffffffffffffffffffffffffffffffffffffffff167f8be0079c531659141344cd1fd0a4f28419497f9722a3daafe3b4186f6b6457e060405160405180910390a35050565b600033905090565b604051806040016040528060608152602001600081525090565b6040518060600160405280600015158152602001600015158152602001600081525090565b600080fd5b600080fd5b6000819050919050565b61158f8161157c565b811461159a57600080fd5b50565b6000813590506115ac81611586565b92915050565b6000602082840312156115c8576115c7611572565b5b60006115d68482850161159d565b91505092915050565b600080fd5b600080fd5b600080fd5b60008083601f840112611604576116036115df565b5b8235905067ffffffffffffffff811115611621576116206115e4565b5b60208301915083600182028301111561163d5761163c6115e9565b5b9250929050565b6000806020838503121561165b5761165a611572565b5b600083013567ffffffffffffffff81111561167957611678611577565b5b611685858286016115ee565b92509250509250929050565b600073ffffffffffffffffffffffffffffffffffffffff82169050919050565b60006116bc82611691565b9050919050565b6116cc816116b1565b82525050565b60006020820190506116e760008301846116c3565b92915050565b7f4e487b7100000000000000000000000000000000000000000000000000000000600052602160045260246000fd5b6006811061172d5761172c6116ed565b5b50565b600081905061173e8261171c565b919050565b600061174e82611730565b9050919050565b61175e81611743565b82525050565b60006020820190506117796000830184611755565b92915050565b600081519050919050565b600082825260208201905092915050565b60005b838110156117b957808201518184015260208101905061179e565b60008484015250505050565b6000601f19601f8301169050919050565b60006117e18261177f565b6117eb818561178a565b93506117fb81856020860161179b565b611804816117c5565b840191505092915050565b6118188161157c565b82525050565b6000604083016000830151848203600086015261183b82826117d6565b9150506020830151611850602086018261180f565b508091505092915050565b60006020820190508181036000830152611875818461181e565b905092915050565b611886816116b1565b811461189157600080fd5b50565b6000813590506118a38161187d565b92915050565b6000602082840312156118bf576118be611572565b5b60006118cd84828501611894565b91505092915050565b60008115159050919050565b6118eb816118d6565b82525050565b60608201600082015161190760008501826118e2565b50602082015161191a60208501826118e2565b50604082015161192d604085018261180f565b50505050565b600060608201905061194860008301846118f1565b92915050565b600082825260208201905092915050565b7f596f75277265206e6f74206120766f7465720000000000000000000000000000600082015250565b600061199560128361194e565b91506119a08261195f565b602082019050919050565b600060208201905081810360008301526119c481611988565b9050919050565b7f566f74696e672073657373696f6e20686176656e74207374617274656420796560008201527f7400000000000000000000000000000000000000000000000000000000000000602082015250565b6000611a2760218361194e565b9150611a32826119cb565b604082019050919050565b60006020820190508181036000830152611a5681611a1a565b9050919050565b7f596f75206861766520616c726561647920766f74656400000000000000000000600082015250565b6000611a9360168361194e565b9150611a9e82611a5d565b602082019050919050565b60006020820190508181036000830152611ac281611a86565b9050919050565b7f50726f706f73616c206e6f7420666f756e640000000000000000000000000000600082015250565b6000611aff60128361194e565b9150611b0a82611ac9565b602082019050919050565b60006020820190508181036000830152611b2e81611af2565b9050919050565b7f4e487b7100000000000000000000000000000000000000000000000000000000600052603260045260246000fd5b7f4e487b7100000000000000000000000000000000000000000000000000000000600052601160045260246000fd5b6000611b9e8261157c565b91507fffffffffffffffffffffffffffffffffffffffffffffffffffffffffffffffff8203611bd057611bcf611b64565b5b600182019050919050565b611be48161157c565b82525050565b6000604082019050611bff60008301856116c3565b611c0c6020830184611bdb565b9392505050565b7f50726f706f73616c7320617265206e6f7420616c6c6f77656420796574000000600082015250565b6000611c49601d8361194e565b9150611c5482611c13565b602082019050919050565b60006020820190508181036000830152611c7881611c3c565b9050919050565b50565b6000611c8f60008361194e565b9150611c9a82611c7f565b600082019050919050565b60006020820190508181036000830152611cbe81611c82565b9050919050565b82818337600083830152505050565b6000611ce0838561194e565b9350611ced838584611cc5565b611cf6836117c5565b840190509392505050565b60006020820190508181036000830152611d1c818486611cd4565b90509392505050565b7f566f7573206e6520706f7576657a20706173206e65207269656e2070726f706f60008201527f7365720000000000000000000000000000000000000000000000000000000000602082015250565b6000611d8160238361194e565b9150611d8c82611d25565b604082019050919050565b60006020820190508181036000830152611db081611d74565b9050919050565b7f4e487b7100000000000000000000000000000000000000000000000000000000600052604160045260246000fd5b7f4e487b7100000000000000000000000000000000000000000000000000000000600052602260045260246000fd5b60006002820490506001821680611e2d57607f821691505b602082108103611e4057611e3f611de6565b5b50919050565b60008190508160005260206000209050919050565b60006020601f8301049050919050565b600082821b905092915050565b600060088302611ea87fffffffffffffffffffffffffffffffffffffffffffffffffffffffffffffffff82611e6b565b611eb28683611e6b565b95508019841693508086168417925050509392505050565b6000819050919050565b6000611eef611eea611ee58461157c565b611eca565b61157c565b9050919050565b6000819050919050565b611f0983611ed4565b611f1d611f1582611ef6565b848454611e78565b825550505050565b600090565b611f32611f25565b611f3d818484611f00565b505050565b5b81811015611f6157611f56600082611f2a565b600181019050611f43565b5050565b601f821115611fa657611f7781611e46565b611f8084611e5b565b81016020851015611f8f578190505b611fa3611f9b85611e5b565b830182611f42565b50505b505050565b600082821c905092915050565b6000611fc960001984600802611fab565b1980831691505092915050565b6000611fe28383611fb8565b9150826002028217905092915050565b611ffb8261177f565b67ffffffffffffffff81111561201457612013611db7565b5b61201e8254611e15565b612029828285611f65565b600060209050601f83116001811461205c576000841561204a578287015190505b6120548582611fd6565b8655506120bc565b601f19841661206a86611e46565b60005b828110156120925784890151825560018201915060208501945060208101905061206d565b868310156120af57848901516120ab601f891682611fb8565b8355505b6001600288020188555050505b505050505050565b60006120cf8261157c565b91506120da8361157c565b92508282039050818111156120f2576120f1611b64565b5b92915050565b600060208201905061210d6000830184611bdb565b92915050565b7f43757272656e7420737461747573206973206e6f7420766f74696e672073657360008201527f73696f6e20656e64656400000000000000000000000000000000000000000000602082015250565b600061216f602a8361194e565b915061217a82612113565b604082019050919050565b6000602082019050818103600083015261219e81612162565b9050919050565b60006040820190506121ba6000830185611755565b6121c76020830184611755565b9392505050565b7f5265676973746572696e672070726f706f73616c732063616e7420626520737460008201527f6172746564206e6f770000000000000000000000000000000000000000000000602082015250565b600061222a60298361194e565b9150612235826121ce565b604082019050919050565b600060208201905081810360008301526122598161221d565b9050919050565b7f5265676973746572696e672070726f706f73616c7320686176656e742073746160008201527f7274656420796574000000000000000000000000000000000000000000000000602082015250565b60006122bc60288361194e565b91506122c782612260565b604082019050919050565b600060208201905081810360008301526122eb816122af565b9050919050565b7f5265676973746572696e672070726f706f73616c73207068617365206973206e60008201527f6f742066696e6973686564000000000000000000000000000000000000000000602082015250565b600061234e602b8361194e565b9150612359826122f2565b604082019050919050565b6000602082019050818103600083015261237d81612341565b9050919050565b7f4f776e61626c653a206e6577206f776e657220697320746865207a65726f206160008201527f6464726573730000000000000000000000000000000000000000000000000000602082015250565b60006123e060268361194e565b91506123eb82612384565b604082019050919050565b6000602082019050818103600083015261240f816123d3565b9050919050565b7f566f7465727320726567697374726174696f6e206973206e6f74206f70656e2060008201527f7965740000000000000000000000000000000000000000000000000000000000602082015250565b600061247260238361194e565b915061247d82612416565b604082019050919050565b600060208201905081810360008301526124a181612465565b9050919050565b7f416c726561647920726567697374657265640000000000000000000000000000600082015250565b60006124de60128361194e565b91506124e9826124a8565b602082019050919050565b6000602082019050818103600083015261250d816124d1565b9050919050565b7f4f776e61626c653a2063616c6c6572206973206e6f7420746865206f776e6572600082015250565b600061254a60208361194e565b915061255582612514565b602082019050919050565b600060208201905081810360008301526125798161253d565b905091905056fea26469706673582212207340a95e16dd10964e8775ebeb7592d09e99c5c191091eddd60767bc36992db964736f6c63430008120033",
  "linkReferences": {},
  "deployedLinkReferences": {}
}